:020000040800F2
:10000000D0070020BD010008292D00080D190008A7
:10001000252D00085D0500088D2E00080000000059
:10002000000000000000000000000000312D00086A
:1000300061050008000000002D2D0008852E000835
:10004000D7010008D7010008D7010008D701000830
:10005000D7010008D7010008650500086D050008F4
:1000600075050008D7010008D7010008D70100086E
:10007000D7010008D7010008D7010008D701000800
:10008000D7010008D7010008D7010008D7010008F0
:10009000D7010008D7010008D7010008D7010008E0
:1000A000D7010008D7010008D7010008D7010008D0
:1000B000D7010008D7010008D7010008D7010008C0
:1000C000D7010008D7010008D7010008D7010008B0
:1000D000D7010008D7010008D7010008D7010008A0
:1000E000D7010008D7010008D701000800F002F886
:1000F00000F055F814A696E8000CB244B344DA4573
:1001000001D100F04CF8BAE80F000FA696E83000D5
:10011000A5EB040504EB0607AAEB0704A7F101070A
:100120004FEA15154FEA3414A4F10104AC4201D38F
:1001300000F035F813F0010F18BFFB1A43F001036C
:1001400000F001F8DBE718472834000048340000CD
:10015000103A24BF78C878C1FAD8520724BF30C8F3
:1001600030C144BF04680C60704700007047000055
:100170000023002400250026103A28BF78C1FBD8B0
:10018000520728BF30C148BF0B607047642900F098
:100190007D80002070471FB51FBD10B510BD00F059
:1001A000A2F91146FFF7F7FF02F048FF00F0C0F98F
:1001B00003B4FFF7F2FF03BC00F0C8F90948804719
:1001C00009480047FEE7FEE7FEE7FEE7FEE7FEE739
:1001D000FEE7FEE7FEE7FEE704480549054A064B51
:1001E00070470000892E0008ED000008D0010020B3
:1001F000D0070020D0030020D00300200FB41CB58E
:10020000074B06AA7B4469460090059800F053F915
:100210000020694600F062F91CBC5DF814FB000088
:10022000D50200002DE9F0410E4604460020206270
:100230002046E168884730B3252805D0D4E901215C
:100240009047206A401CF2E7E16820460027884773
:10025000050018D0A5F14100192802D820354FF427
:1002600000673246294620462760FFF78FFF40B1DE
:10027000012804D0F61D26F007060836D8E7361DFB
:10028000D6E72846DAE7206ABDE8F0812DE9F0419B
:100290000646002410687529314616A510D0AFF324
:1002A0000080002802DA404213A507E031688A077F
:1002B00001D512A502E0490704D511A5012401E0EA
:1002C000AFF3008000210A2206F1240709E0B0FB09
:1002D000F2FCB0FBF2F302FB1C00303078541846FD
:1002E000491C0028F3D123462A463046BDE8F04198
:1002F00000F082B8000000002D0000002B0000007C
:1003000020000000032A40F2308010F0030C00F0BF
:10031000158011F8013BBCF1020F624498BF11F83F
:1003200001CB00F8013B38BF11F8013BA2F10402F8
:1003300098BF00F801CB38BF00F8013B11F0030370
:1003400000F02580083AC0F0088051F8043B083AD4
:1003500051F804CBA0E80810F5E7121D5CBF51F876
:10036000043B40F8043BAFF30080D20724BF11F8F0
:10037000013B11F801CB48BF11F8012B24BF00F855
:10038000013B00F801CB48BF00F8012B704710B5C6
:10039000203AC0F00B80B1E81850A0E81850B1E83E
:1003A0001850A0E81850203ABFF4F5AF5FEA027C7D
:1003B00024BFB1E81850A0E8185044BF18C918C0AD
:1003C000BDE810405FEA827C24BF51F8043B40F84E
:1003D000043B08BF7047D20728BF31F8023B48BF33
:1003E00011F8012B28BF20F8023B48BF00F8012B71
:1003F00070477047704770472DE9F0470D469946A2
:100400009246044600F124080168880604D5E06994
:1004100021F01001216000E00120A84201DD471B0E
:1004200000E00027A1697A1902EB0900081AA0610F
:100430002078C00602D42046AFF30080002608E0F2
:10044000D4E901211AF806009047206A401C761C66
:1004500020624E45F4DB2078C0060AD52046AFF373
:10046000008006E0D4E9012130209047206A401C3A
:100470002062381EA7F10107F4DC07E0D4E901216E
:1004800018F805009047206A401C2062281EA5F13C
:100490000105F3DC2046AFF300802078000602D58A
:1004A0000220BDE8F0870120FBE7000001694A1C3B
:1004B00002610878704700B58FB0CDE901310021A5
:1004C000059105497944CDE9031011466846FFF7C7
:1004D000A9FE0FB000BD0000E5FFFFFF0A6802F8AB
:1004E000010B0A607047754600F02CF8AE46050017
:1004F0006946534620F00700854618B020B5FFF73F
:100500006BFEBDE820404FF000064FF000074FF0B3
:1005100000084FF0000BAC46ACE8C009ACE8C009DD
:10052000ACE8C009ACE8C00921F007018D4670476E
:1005300010B50446AFF300802046BDE81040FFF739
:1005400037BE0000004870476000002001491820B5
:10055000ABBEFEE72600020070470000FEE7000089
:1005600070470000012000F045B80000022000F0B4
:1005700041B80000042000F03DB80000B0B50446CA
:1005800000F052F9054640F20000C2F20000007887
:10059000611C18BF044400BF00F046F9401BA04294
:1005A000FAD3B0BD40F2C001C2F20001012204281A
:1005B0000A6011D0022811D0012818BF704740F2FC
:1005C0000C00C2F20000016801290EBF032101687E
:1005D00001390160704700BF4A60704740F20C006B
:1005E000C2F20000016803290EBF01210168013138
:1005F0000160704740F21441C4F201010A680242EE
:1006000014BF08607047FFF7CDBF00002DE9F04F21
:1006100082B00E68002E00F0FD8041F20042C4F26C
:100620000102042340F2004E904208BF03234FF61C
:10063000FF7CC4F2010E009300240123C1F2100CD0
:100640004FF0000A4FF0000944E000BF012704F01A
:100650000C030F229A402BEA020207FA03F34FEA37
:100660009A051A4346F825204E6840F20C45F202DE
:10067000DEF8082054BF22EA080242EA0802C4F267
:100680000105CEF808202A68B30254BF22EA080206
:1006900042EA08022A60B303DEF8042054BF22EACB
:1006A000080242EA0802F303CEF80420DEF8002034
:1006B0004FF0010354BF22EA080242EA0802CEF8D2
:1006C00000200E680AF1010A36FA0AF204F1040465
:1006D00000F0A08003FA0AFB16EA0B08F1D04E687E
:1006E000664511DC122E55D8DFE806F0340A44487E
:1006F000545454545454545454545454544C50001A
:10070000D1F80C9046E000BF4FF6FF72C1F2210213
:1007100096420FDC0022C1F2110296421AD000224A
:10072000C1F21202964215D00022C1F22102964275
:1007300010D02FE00022C1F2220296420AD00022FD
:10074000C1F23102964205D00022C1F23202964235
:1007500020D100BF8A684AB1012A14BFC0F814B082
:10076000C0F810B04FF0080914E000BF4FF00409C2
:1007700010E000BFCA6802F108090BE04FF0000961
:1007800008E000BFCA6802F1040903E0CA6802F188
:100790000C0900BF22460646B8F5807F24BF203AE8
:1007A000043637680F25954027EA050509FA02F255
:1007B0002A433260CA79D2067FF583AF41F218032B
:1007C000C4F202031A68AEF57E7642F001021A60A6
:1007D0001A6802F001020192019A2AF0030256F807
:1007E00002B040F60002C4F20102904210D040F67E
:1007F0000042C4F2010290423FF428AF41F20002ED
:10080000C4F20102009F904208BF02271FE700BF09
:1008100000271CE702B0BDE8F08F000080680840A8
:1008200018BF01207047000040F2C810C2F200005B
:1008300000687047002804BF01207047F0B581B000
:10084000044690F83D0028B9002084F83C0020467A
:1008500000F090F9242084F83D002068016821F020
:1008600001010160016841F400410160016821F467
:100870000041016000F048FB636848F2A16CC0F2DF
:10088000010C40F60011C0F23D0163453CBF48F247
:100890008041C0F21E01884202D2012001B0F0BDA9
:1008A0004DF68361C4F21B31A0FB01122168970C45
:1008B000D1F804E04FF496762EF03F0545EA9245D4
:1008C0004D60774348F638160D6AC0F24106A7FB23
:1008D000067625F03F07634538BF960C721C3A43F5
:1008E0000A62CA6948F2A0664CF6FF77C0F20106B8
:1008F000B34222EA07020BD801385B00B0FBF3F0E9
:1009000001306FF31F30042898BF04201BE000BFA4
:10091000A768013857B119277B43B0FBF3F00130CA
:100920006FF31F3070B100F5804007E003EB430325
:10093000B0FBF3F001306FF31F3018B100F5004049
:1009400001E000BF01201043C8610868D4E9072313
:1009500020F0C000104318430860886848F2FF3256
:1009600004F10C0790438CCF18431043A6698860AC
:10097000C86820F0FF0038433043C860086840F082
:100980000100086000202021206484F83D102063CD
:1009900084F83E0001B0F0BD2DE9F04383B01E465F
:1009A000174689460446FFF73FFF94F83D1020297B
:1009B00024D10546206800BF816989071AD5FFF751
:1009C00033FF411B20681A29F6D381698907F3D5C3
:1009D00000202021206384F83D1084F83E00216C23
:1009E00041F02001216484F83C00022003B0BDE8FE
:1009F000F08300BF94F83C10012903D1022003B01A
:100A0000BDE8F083012184F83C100168C90703D1D7
:100A1000016841F001010160016840F2020821F41F
:100A200000610160212184F83D10102184F83E10FE
:100A30000021216467626685618DC0F2010821850D
:100A4000A8F10211E162E16A0A9E11F5803F18BF28
:100A500001291DD1016841F48071016020464FF0E9
:100A6000011100223346009500F0B0FF50B120681C
:100A70000068C00544BF4FF400702064012003B03B
:100A8000BDE8F0832069B0F5804F07D1FE2015E066
:100A90000829DFD0216B1229DCD0DFE7062000EA2D
:100AA000D9102168F030086108F10601204632466D
:100AB0002B4601F071F80028E0D1FF20216800EA00
:100AC000090008612046414632462B4601F064F891
:100AD0000028D3D1002002902068416902918069EA
:100AE0000290029806E000BF204631462A4600F0F8
:100AF0000FFF18BB208D68B3204631462A4601F00F
:100B0000B7F8D8B9606A2168024612F8013B0B6158
:100B10006262628D013A6285228D531E23854F6980
:100B20007F07E1D51B04DFD0437802300B616062A0
:100B3000608D01386085901E2085D5E7206C0428E3
:100B40009CD12068016841F400710160012003B06C
:100B5000BDE8F0832068016841F400710160202045
:100B600084F83D00002084F83E0084F83C0003B087
:100B7000BDE8F08310B586B045F200410068C4F2CC
:100B8000000100228842049202D006B010BD00BFCE
:100B900041F21804C4F20204206840F0080020600A
:100BA000206800F0080001900198C02002901220F7
:100BB00003900320059001F5384002A9FFF726FDB8
:100BC000606840F400106060606800F400100190FC
:100BD000019806B010BD000040F2000040F2C811BC
:100BE000C2F20000C2F2000100780A6810440860F6
:100BF0007047000080B542F20000C4F202000168B4
:100C000041F010010160032000F08CF80F2000F08B
:100C100005F800F027F8002080BD000070B540F214
:100C20000006C2F2000640F208013278C2F200016A
:100C30004FF47A730968B3FBF2F20446B1FBF2F1A8
:100C4000084600F089FB0F2C4FF0010508D838B991
:100C50004FF0FF3021460022002500F037F8746085
:100C6000284670BD82B041F21800C4F2020001684B
:100C7000022241F001010160016801F001010191CE
:100C80000199416841F080514160406800F0805016
:100C9000009000980420C4F20100016862F31A6118
:100CA000016002B070470000002848BF704700F0A4
:100CB0001F01012202FA01F11C2202EAD0004EF2C9
:100CC0000012CEF2000281507047000010B54EF6BF
:100CD0000C5CCEF2000CDCF80030C3F3022E8EF078
:100CE0000704042C28BF0424BEF103034FF0FF3E89
:100CF0000EFA04F438BF0023A14399400EFA03F31F
:100D00009A43114300F00F0200F160430901043AD5
:100D100003F564436244002848BF02F10C031970D4
:100D200010BD00004EF60C51CEF200010A684FF6DD
:100D3000FF031A4060F30A2242F0806040F0FD7029
:100D400008607047002804BF012070472DE9F04378
:100D500081B042F20008C4F202080446D8F800004C
:100D60000D4600F0070088420CD2D8F8000020F0B1
:100D700007002843C8F80000D8F8000000F007007A
:100D8000A8426CD1206841F204098107C4F202092B
:100D900017D5410705D5D9F8001041F4E061C9F82D
:100DA0000010010705D5D9F8001041F46051C9F8C9
:100DB0000010D9F80010A26821F0F0011143C9F821
:100DC0000010C00742D1D8F8000000F00700A84288
:100DD0000CD9D8F8000020F007002843C8F800001C
:100DE000D8F8000000F00700A84238D12068410779
:100DF00007D5D9F80010E26821F4E0611143C9F881
:100E00000010000708D5D9F80000216920F46050CF
:100E100040EAC100C9F80000D9F8002002F00C0037
:100E2000082841F20020C0F27A0051D143F2444335
:100E3000C2F38341C0F60003595CD2033CD440F6B0
:100E40000010C0F23D00484342E000BF6068022845
:100E50000AD001282AD159F8041C890308D401209A
:100E600001B0BDE8F08300BF59F8041C8901F6D534
:100E7000D9F8001021F003010843C9F80000FFF77A
:100E8000D3FC064641F28837D9F80000616800F0CB
:100E90000C00B0EB810F96D0FFF7C6FC801BB84268
:100EA000F2D9032001B0BDE8F08300BF59F8041C5B
:100EB0008907D4D5DCE700BFD9F8002043F24243CC
:100EC000C2F34042C0F600039A5C4843B0FBF2F024
:100ED000D9F8001043F22A42C1F30311C0F6000210
:100EE000515C40F2080220FA01F140F20400C2F223
:100EF00000000068C2F200021160FFF78FFE0020C0
:100F000001B0BDE8F083000040F2080041F20401A6
:100F1000C2F20000C4F202010068096843F23A42DA
:100F2000C1F30221C0F60002515CC84070470000C6
:100F300040F2080041F20401C2F20000C4F20201D2
:100F40000068096843F23A42C1F3C221C0F60002C8
:100F5000515CC84070470000002804BF0120704762
:100F60002DE9F04182B00446007841F20006C00746
:100F7000C4F202060CD0706800F00C00042840F0A7
:100F800081803068800303D56068002800F04E81BE
:100F9000207880071BD5706810F00C0F09D070689E
:100FA00000F00C00082840F08B807068C00300F14E
:100FB00087803068800703D52069012840F036819A
:100FC0003068616920F0F80040EAC10030602078A4
:100FD000000713D4207840072CD4E569002D00F0D9
:100FE0002081706800F00C00082840F0AF80012DCF
:100FF00040F00C81012002B0BDE8F081A06900281A
:1010000000F08C800020C4F242200121C0F880143E
:10101000FFF70AFC054600BF706A800700F1BA803E
:10102000FFF702FC401B0228F6D9032002B0BDE8FE
:10103000F08100BFF0695FEAC00808D4F06940F0B1
:101040008050F061F06900F080500090009847F205
:101050000007C4F200073868C0054DD4386840F472
:1010600080703860FFF7E0FB054600BF3868C005B8
:1010700042D4FFF7D9FB401B6428F7D9032002B004
:10108000BDE8F081706800F00C00082803D170689A
:10109000C0033FF576AF6068002800F00981B0F525
:1010A000A02F00F01D81B0F5803F00F01D81306859
:1010B00020F480303060306820F4802017E100BFD9
:1010C0002069002840F20000C4F2422000F08C8029
:1010D00001210160FFF7A8FB054600BF30688007CB
:1010E0003FF56EAFFFF7A0FB401B0228F6D90320A7
:1010F00002B0BDE8F08100BFE068002800F09A80EF
:10110000052800F0B180012800F0B280306A20F09C
:1011100001003062306A20F00400ACE00020C4F22C
:1011200042200021C0F88014FFF77EFB054600BF77
:10113000706A80077FF54EAFFFF776FB401B0228F1
:10114000F6D9032002B0BDE8F08100BF0027C4F249
:10115000422700203866FFF767FB022D05460DD1B8
:101160003068800140F1D680FFF75EFB401B02280B
:101170004FF00300F4D902B0BDE8F081306880017F
:101180004FD5FFF751FB401B02284FF00300F5D964
:10119000F1E700BF40F20800C2F20000006844F628
:1011A000D351C1F26201A0FB0101480A019000BFC6
:1011B00000BF0198411E002801913FF40BAF00BF12
:1011C0000198411E002801913FF404AF00BF01982F
:1011D000411E002801913FF4FDAE00BF0198411E61
:1011E00000280191E4D1F5E600210160FFF71CFB26
:1011F000054600BF306880077FF5E9AEFFF714FBB6
:10120000401B02284FF00300F4D9B4E77068216A4C
:1012100000F480328A4209D1616A00F47010884279
:1012200004D1002002B0BDE8F08100BF012002B06F
:10123000BDE8F081306A20F001003062306A20F0B1
:1012400004003062FFF7F0FA054641F2883700BF2C
:10125000306A800722D5FFF7E7FA401BB8424FF00B
:101260000300F5D987E700BF306A40F00400306220
:10127000306A40F001003062FFF7D6FA054641F2CD
:10128000883700BF306A800708D4FFF7CDFA401BCB
:10129000B842F7D9032002B0BDE8F081B8F1000FE1
:1012A0003FF59BAEF06920F08050F06195E600BFFD
:1012B000306820F480303060306820F48020306066
:1012C000FFF7B2FA054600BF306880037FF560AED5
:1012D000FFF7AAFA401B64284FF00300F4D94AE74D
:1012E000306840F480203060306840F480303060F6
:1012F000FFF79AFA054600BF306880033FF548AE15
:10130000FFF792FA401B6428F6D9032002B0BDE82B
:10131000F08100BF206AB0F5803F05D17168A268F6
:1013200021F40031114371607168626A21F4741113
:1013300011430843706001203866FFF775FA0446D0
:10134000306880013FF56DAFFFF76EFA001B022891
:101350004FF00300F4D90EE7411E0020B0EB116FEF
:101360001CBF012070474EF21002CEF20002516005
:101370004EF62351CEF20001F0230B70072190604E
:1013800011607047002804BF0120704710B5044663
:1013900090F8410028B9002084F84000204600F071
:1013A00063F8242084F841002068D4E90212C3685D
:1013B00023F40053C360036923F440531A430261CA
:1013C000D4E904231143C268194341F20C639A43E0
:1013D0001143C1604169A26921F44071114343F690
:1013E0000002C4F201029042416103D0FFF78CFD7C
:1013F00002E000BFFFF79CFDD4E900231921484318
:101400009900B0FBF1F048F21F5CC5F2EB1CA0FBA9
:101410000C314FF69C734909C0F6FF7301FB0300C2
:10142000322303EB0010A0FB0C03F02000EA531062
:1014300000EB0110C3F343110844906010692021B0
:1014400020F490401061506920F02A005061D0686B
:1014500040F40050D0600020606484F8411084F8AB
:101460004210606310BD000070B586B040F60044C5
:10147000C4F201040068A4F54441002688420496A1
:1014800002D006B070BD00BF41F21800C4F20200E5
:10149000416802AD41F480214160416801F480213E
:1014A00001910199016841F0080101600068294635
:1014B00000F00800019001984FF480600290022033
:1014C0000390032005902046FFF7A0F84FF400603A
:1014D000CDE90206204629460496FFF797F806B0A4
:1014E00070BD00002DE9F04381B0044690F8420041
:1014F000202827D1884600294FF0010000F0C7803E
:101500001746002A00F0C380002022211D46606497
:1015100084F842102063FFF787F9A785E785A16863
:101520000746B1F5805F03D12069002800F0A6804E
:1015300046464FF00008E08D002800F0A48005F139
:10154000010910E0022001B0BDE8F08340680026E8
:101550006FF35F2028F8020BE08D0138E085E08D05
:10156000002800F090802068016889060ED4B9F147
:10157000000F19D055B300BFFFF756F9C01BA842A2
:1015800024D8206801688906F6D500BF002EDDD07A
:10159000A168B1F5805F15D009B9216991B14068A2
:1015A00000F07F000FE000BF01688906EED40168FB
:1015B00089065CBF01685FEA8161E7D4016889063A
:1015C000F2D5E3E7406806F8010BC5E7206850E86C
:1015D000030F216820F4D07041E80302E2B12068D3
:1015E00050E8030F216820F4D07041E803029AB15B
:1015F000206850E8030F216820F4D07041E803020E
:1016000052B1206850E8030F216820F4D07041E8FF
:101610000302002ADAD100BF206850E8050F2168D4
:1016200020F0010041E80502DAB1206850E8050F1A
:10163000216820F0010041E8050292B1206850E8DD
:10164000050F216820F0010041E805024AB1206839
:1016500050E8050F216820F0010041E80502002A4A
:10166000DAD1202084F8410084F84200002084F878
:101670004000032001B0BDE8F08300BF0026E08DEC
:1016800000287FF45CAF202084F84200002001B0E5
:10169000BDE8F0832DE9F04381B0044690F84100A5
:1016A000202840F0B180884600294FF0010000F06A
:1016B000D6801646002A00F0D280002060642120E7
:1016C0001D4684F84100FFF7AFF8A684E684A168C0
:1016D0000646B1F5805F03D12069002800F09880AC
:1016E00047464FF00008E18C2068002900F0968002
:1016F00005F101090BE000BF47B317F8011B41607A
:10170000E18C0139E184E18C002900F087800168D7
:101710000906F1D4B9F1000F0AD0EDB1FFF784F852
:10172000801BA84218D8206801680906F6D5E3E7AF
:1017300001680906E0D4016809065CBF01685FEA38
:101740000161D9D401680906F2D5D5E738F8021B42
:1017500000276FF35F21D2E7206850E8030F21686C
:1017600020F4D07041E80302BAB3206850E8030FB8
:10177000216820F4D07041E8030272B3206850E879
:10178000030F216820F4D07041E803022AB32068D7
:1017900050E8030F216820F4D07041E80302002ACA
:1017A000DAD11AE0206850E8050F216820F0010026
:1017B00041E80502DAB1206850E8050F216820F001
:1017C000010041E8050292B1206850E8050F216848
:1017D00020F0010041E805024AB1206850E8050FF9
:1017E000216820F0010041E80502002ADAD120201A
:1017F00084F8410084F84200002084F8400003206F
:1018000001B0BDE8F08300BF022001B0BDE8F08365
:101810000027E18C206800297FF46AAF016849063F
:1018200019D4FDB1691C0DD10168490613D40168B2
:1018300049065CBF01685FEA41610CD40168490652
:10184000F2D508E0FEF7F0FF801BA8420AD8206816
:1018500000684006F6D5202084F84100002001B041
:10186000BDE8F083206850E8030F216820F4D070B1
:1018700041E80302002A3ED0206850E8030F2168A7
:1018800020F4D07041E80302AAB3206850E8030FA7
:10189000216820F4D07041E8030262B3206850E868
:1018A000030F216820F4D07041E80302002AD9D147
:1018B00021E000BF206850E8050F216820F00100FA
:1018C00041E80502002A3FF492AF206850E8050F76
:1018D000216820F0010041E80502002A3FF487AFAB
:1018E000206850E8050F216820F0010041E805025A
:1018F000002A3FF47CAF206850E8050F216820F0F3
:10190000010041E80502002AD4D170E7FEE700009B
:1019100070B50368044653F8140F400711D40E46FF
:10192000481C29D086BB00BF1868400527D4FEF7A5
:101930007BFF236853F8140F400737D5186840071A
:10194000F2D5002070BD00BF18684007F9D41868B0
:10195000400514D418684007F3D4186840050ED425
:1019600018684007EDD41868400508D41868400787
:101970004FF0000048BF70BD18684005E4D56FF413
:1019800080601860042012E0154603E053F8140F3D
:101990004007D6D418684005F1D4FEF745FF401B38
:1019A0002368B042F2D958694007EFD420200021C3
:1019B0002022216384F83D2084F83E10226C1043DD
:1019C0002064012084F83C1070BD00002DE9F04136
:1019D000054600681E46144601F47F0201338FB2AB
:1019E00042D0DDF81880B2F5803F40F08780406932
:1019F0003840C01BB0FA80F04009A04240F0C880D7
:101A00004EB924E040693840C01BB0FA80F040096C
:101A1000A04240F0BD80FEF707FFA0EB0801286858
:101A2000B142EFD941693940C91BB1FA81F1490985
:101A3000A142E7D19BE000BF40693840C01BB0FA2B
:101A400080F04009A0424FF0000040F0A280FEF775
:101A5000EBFE286841693940C91BB1FA81F1490997
:101A6000A142E9D183E000BFB2F5803F24D100BF9D
:101A700041693940C91BB1FA81F14909A14240F0DD
:101A8000878041693940C91BB1FA81F14909A142F6
:101A900040F07E8041693940C91BB1FA81F14909A2
:101AA000A14275D141693940C91BB1FA81F1490997
:101AB000A142DDD06CE000BF81693940C91BB1FA99
:101AC00081F14909A14263D181693940C91BB1FA49
:101AD00081F14909A1425BD181693940C91BB1FA41
:101AE00081F14909A14253D181693940C91BB1FA39
:101AF00081F14909A142DFD04AE000BF8069384046
:101B0000C01BB0FA80F04009A04241D146B923E0A1
:101B100080693840C01BB0FA80F04009A04237D13C
:101B2000FEF782FEA0EB08012868B142F0D9816976
:101B30003940C91BB1FA81F14909A142E8D116E047
:101B400080693840C01BB0FA80F04009A0424FF0D5
:101B5000000018BFBDE8F081FEF766FE28688169C5
:101B60003940C91BB1FA81F14909A142E8D10020ED
:101B70002021286385F83D1085F83E00296C41F04E
:101B80002001296485F83C000120BDE8F08100BFF8
:101B90000020BDE8F0810000F0B581B00446006887
:101BA0001D4643698FB203EA0701B94202D1002002
:101BB00001B0F0BD4169164601323FD049053FD41E
:101BC000CEB100BFFEF730FE411B2068B14203D901
:101BD00041693940B94215D141693940B942E6D02D
:101BE00041694905EED52BE041693940B942DED063
:101BF0004169490524D4FEF717FE20684169394040
:101C0000B942F1D0202023E041693940B942CED019
:101C10004169490514D441693940B942C7D0416985
:101C200049050DD441693940B942C0D041694905DF
:101C300006D441693940B942B9D041694905E3D573
:101C4000016841F4007101606FF48061416104201A
:101C500000212022216384F83D2084F83E10226C6C
:101C60001043206484F83C10012001B0F0BD000056
:101C700070B50368044653F8140F000611D40E46DD
:101C8000481C29D086BB00BF1868400527D4FEF742
:101C9000CBFD236853F8140F000637D518680006EB
:101CA000F2D5002070BD00BF18680006F9D418688E
:101CB000400514D418680006F3D4186840050ED403
:101CC00018680006EDD41868400508D418680006A6
:101CD0004FF0000048BF70BD18684005E4D56FF4B0
:101CE00080601860042012E0154603E053F8140FDA
:101CF0000006D6D418684005F1D4FEF795FD401BC8
:101D00002368B042F2D958690006EFD420200021A0
:101D10002022216384F83D2084F83E10226C104379
:101D20002064012084F83C1070BD00002DE9F04FC4
:101D3000B7B040F21009C2F200090DF18808D9E9E4
:101D4000004599F8086099F8097008F10D0009F14B
:101D50000D013F22FEF7D6FAB9F84E000322311DDD
:101D60008DF89060ADF89220012208F11006CDE9BF
:101D700022458DF891708DF89420ADF8D410ADF80F
:101D8000D600304650F8042B694641F8042B50F831
:101D9000042B22AB41F8042B50F8042B41F8042B00
:101DA00050F8042B41F8042B50F8042B41F8042B75
:101DB00050F8042B41F8042B50F8042B41F8042B65
:101DC00050F8042B41F8042B50F8042B41F8042B55
:101DD00050F8042B41F8042B50F8042B41F8042B45
:101DE00050F8042B41F8042B50F8042B41F8042B35
:101DF00050F8042B41F8042B50F8042B41F8042B25
:101E000050F8042B41F8042B0FCB01F0F5F940F208
:101E1000641A40F2C800C2F2000AC2F20000514641
:101E200064224FF47A73FFF75DFBBAF8070040BAFB
:101E300002280DD9821E0AF1090111A8FEF762FAE3
:101E40009DF8445025B1284637B0BDE8F08F00BF5B
:101E50003220FEF793FBD9E9005799F8084099F82A
:101E600009B008F10E0009F10E013E22FEF74AFA10
:101E7000B9F84E000422E11DC0F20212CDE922574A
:101E80008DF890408DF891B0CDF89220ADF8D41037
:101E9000ADF8D600304650F8042B694641F8042BC3
:101EA00050F8042B22AB41F8042B50F8042B41F8D6
:101EB000042B50F8042B41F8042B50F8042B41F864
:101EC000042B50F8042B41F8042B50F8042B41F854
:101ED000042B50F8042B41F8042B50F8042B41F844
:101EE000042B50F8042B41F8042B50F8042B41F834
:101EF000042B50F8042B41F8042B50F8042B41F824
:101F0000042B50F8042B41F8042B50F8042B41F813
:101F1000042B50F8042B41F8042B0FCB01F06CF983
:101F200040F2C800C2F20000514664224FF47A73B6
:101F3000FFF7D8FABAF8070040BA02280AD9821E79
:101F40000AF1090111A8FEF7DDF99DF84450002DB2
:101F50007FF479AF3220FEF711FBD9E9004599F8FB
:101F6000087099F809B008F1120009F112013A223B
:101F7000FEF7C8F90822B9F84E00ADF892204FF4E8
:101F8000827207F14D0125924FF48042CDE922453E
:101F90008DF890708DF891B0ADF89820ADF8D41010
:101FA000ADF8D60056F8041B684640F8041B56F8F6
:101FB000041B22AB40F8041B56F8041B40F8041B1A
:101FC00056F8041B40F8041B56F8041B40F8041B89
:101FD00056F8041B40F8041B56F8041B40F8041B79
:101FE00056F8041B40F8041B56F8041B40F8041B69
:101FF00056F8041B40F8041B56F8041B40F8041B59
:1020000056F8041B40F8041B56F8041B40F8041B48
:1020100056F8041B40F8041B56F8041B40F8041B38
:1020200056F8041B40F8041B0FCB01F0E5F840F212
:10203000C800C2F20000514664224FF47A73FFF7E1
:1020400051FABAF8070040BA022831D9821E0AF1C3
:10205000090111A8FEF756F99DF844500A2D3BD00E
:10206000012D4BD02DBB9DF845009DF8465045EA0B
:10207000002400F051FF6420FEF780FA2EA032A168
:1020800001F05CF943F27C4122AEC0F6000130461B
:102090002246FEF7B3F800F03FFF6420FEF76EFA29
:1020A0002DA0314601F04AF9284637B0BDE8F08F3F
:1020B000002500F031FF6420FEF760FA43F22A5059
:1020C00043F26451C0F60000C0F6000101F036F999
:1020D000284637B0BDE8F08F00F01EFF6420FEF701
:1020E0004DFA43F2BC410FA0C0F6000101F026F901
:1020F0000A25284637B0BDE8F08F00BF00F00CFF7E
:102100006420FEF73BFA43F2EE4043F21151C0F671
:102110000000C0F6000101F011F90125284637B092
:10212000BDE8F08F2020202046696E6765727072CE
:10213000696E74730000000020202020466F756EC9
:1021400064206120000000002020207072696E74FD
:10215000206D617463682100466F756E6420494488
:10216000202300002DE9F04FC1B040F60005C4F275
:10217000010500F0D1FE6420FEF700FA0FF6F8200A
:102180000FF6083101F0DAF800F0C6FE6420FEF721
:10219000F5F90FF608300FF6143101F0CFF800BF53
:1021A00028460121FEF73AFB012805D028460221E6
:1021B000FEF734FB01280DD1284601210124FEF74A
:1021C0002DFB40B1284602210224FEF727FB002800
:1021D000E6D100E0002443F27C410DF16205C0F637
:1021E000000128462246FEF709F800F095FE64201B
:1021F000FEF7C4F90FF6C420294601F09FF800F05D
:102200008BFE6420FEF7BAF90FF6C0200FF6CC2142
:1022100001F094F82CA940F2100901F10D00C2F26E
:102220000009149009F10D00139001F110001590B0
:1022300040F2641040F2C806C2F200000127C2F268
:1022400000060930129009E043F26451C0F6000123
:1022500001F074F80325002D00F0C780DDE91310AC
:10226000D9E9005899F808A099F809B03F22FEF77B
:1022700049F8B9F84E000AF104010322ADF8FE0056
:102280001598CDE92C588DF8B8A08DF8B9B0ADF8F7
:10229000BA208DF8BC70ADF8FC1050F8042B6946DC
:1022A00041F8042B50F8042B2CAB41F8042B50F8C8
:1022B000042B41F8042B50F8042B41F8042B50F860
:1022C000042B41F8042B50F8042B41F8042B50F850
:1022D000042B41F8042B50F8042B41F8042B50F840
:1022E000042B41F8042B50F8042B41F8042B50F830
:1022F000042B41F8042B50F8042B41F8042B50F820
:10230000042B41F8042B50F8042B41F8042B50F80F
:10231000042B41F8042B50F8042B41F8042B0FCB6D
:1023200000F06AFF40F26415C2F20005304629460B
:1023300064224FF47A73FFF7D5F8B5F8070040BA76
:10234000022825D91299821E1BA8FDF7DBFF9DF8F4
:102350006C50032D1DD8DFE805F0390D032F00BFA9
:1023600000F0DAFD6420FEF709F943F26C40C0F694
:10237000000069E700F0D0FD6420FEF7FFF843F2AB
:10238000F24043F21151C0F60000C0F600015FE7D1
:10239000002500F0C1FD6420FEF7F0F843F22A505A
:1023A00043F26451C0F60000C0F6000100F0C6FF21
:1023B000002D7FF453AF18E000F0AEFD6420FEF76F
:1023C000DDF843F21C50C0F600003DE700F0A4FD2C
:1023D0006420FEF7D3F843F2E24043F26451C0F6C2
:1023E0000000C0F6000100F0A9FF2CA800F10E0AC1
:1023F000D9E9005699F8087099F8098009F10E0199
:1024000050463E221191FDF77DFFB9F84E0004229F
:10241000F91DC0F20212ADF8FE001598CDE92C5658
:102420008DF8B8708DF8B980CDF8BA20ADF8FC10F1
:1024300050F8042B694641F8042B50F8042B2CABC0
:1024400041F8042B50F8042B41F8042B50F8042BCE
:1024500041F8042B50F8042B41F8042B50F8042BBE
:1024600041F8042B50F8042B41F8042B50F8042BAE
:1024700041F8042B50F8042B41F8042B50F8042B9E
:1024800041F8042B50F8042B41F8042B50F8042B8E
:1024900041F8042B50F8042B41F8042B50F8042B7E
:1024A00041F8042B50F8042B41F8042B50F8042B6E
:1024B00041F8042B0FCB00F09FFE40F2641540F270
:1024C000C800C2F20005C2F20000294664224FF49F
:1024D0007A73FFF707F8B5F8070040BA022840F210
:1024E00009831299821E1BA8FDF70CFF9DF86C60F2
:1024F000152E00F2FF82DFE816F017008303FD02BD
:10250000FD02FD02FD0211032503FD02FD02FD0295
:10251000FD02FD02FD02FD02FD02FD02FD02FD02C3
:10252000FD02FD02390300BFCDF840A000F0F4FC2D
:102530006420FEF723F843F2645643F27F40C0F66E
:102540000006C0F60000314600F0F8FE00F0E4FCA2
:102550006420FEF713F80FF29470314600F0EEFE9F
:102560004FF4FA60FEF70AF840F2C806C2F200061D
:102570000DF16C08DDE91310D9E9005A99F808B09B
:1025800099F809703F22FDF7BDFEB9F84E0003220D
:102590000BF10401ADF8BA200122ADF8FE00159848
:1025A000CDE92C5A8DF8B8B08DF8B9708DF8BC20F3
:1025B000ADF8FC1050F8042B694641F8042B50F894
:1025C000042B2CAB41F8042B50F8042B41F8042BBE
:1025D00050F8042B41F8042B50F8042B41F8042B3D
:1025E00050F8042B41F8042B50F8042B41F8042B2D
:1025F00050F8042B41F8042B50F8042B41F8042B1D
:1026000050F8042B41F8042B50F8042B41F8042B0C
:1026100050F8042B41F8042B50F8042B41F8042BFC
:1026200050F8042B41F8042B50F8042B41F8042BEC
:1026300050F8042B41F8042B0FCB00F0DDFD40F2E5
:102640006415C2F200053046294664224FF47A73BD
:10265000FEF748FFB5F8070040BA022809D91299D9
:10266000821E4046FDF74EFE9DF86C0002287FF466
:1026700081AF0FF288600DF1620100F05FFE00F0A3
:102680004BFC6420FDF77AFF0FF274600FF27C615F
:1026900000F054FE40F2C8064FF0010AC2F20006F4
:1026A00013E000BF002500F037FC6420FDF766FF53
:1026B00043F22A5043F26451C0F60000C0F6000114
:1026C00000F03CFE002D00F0BE80DDE91310D9E9DA
:1026D000005799F8088099F809B03F22FDF712FEDB
:1026E000B9F84E0008F104010322ADF8FE00159878
:1026F000CDE92C578DF8B8808DF8B9B0ADF8BA2077
:102700008DF8BCA0ADF8FC1050F8042B694641F8D8
:10271000042B50F8042B2CAB41F8042B50F8042B5D
:1027200041F8042B50F8042B41F8042B50F8042BEB
:1027300041F8042B50F8042B41F8042B50F8042BDB
:1027400041F8042B50F8042B41F8042B50F8042BCB
:1027500041F8042B50F8042B41F8042B50F8042BBB
:1027600041F8042B50F8042B41F8042B50F8042BAB
:1027700041F8042B50F8042B41F8042B50F8042B9B
:1027800041F8042B50F8042B41F8042B0FCB00F038
:1027900033FD40F26415C2F200053046294664223A
:1027A0004FF47A73FEF79EFEB5F8070040BA022890
:1027B0007FF678AF1299821E1BA8FDF7A3FD9DF846
:1027C0006C50032D3FF66FAFDFE805F02E02101AB4
:1027D00000F0A2FB6420FDF7D1FE43F2F24043F289
:1027E0001151C0F60000C0F6000116E000F094FBA5
:1027F0006420FDF7C3FE43F26C40C0F6000008E021
:1028000000F08AFB6420FDF7B9FE43F21C50C0F6CD
:10281000000043F26451C0F6000100F08FFD032573
:10282000002D7FF452AF0EE000F076FB6420FDF740
:10283000A5FE43F2E24043F26451C0F60000C0F648
:10284000000100F07BFDDDE91001D9E9005699F89F
:10285000087099F809803E22FDF754FDB9F84E0042
:10286000042207F10801C0F20222ADF8FE0015981B
:10287000CDE92C568DF8B8708DF8B980CDF8BA2016
:10288000ADF8FC1050F8042B694641F8042B50F8C1
:10289000042B2CAB41F8042B50F8042B41F8042BEB
:1028A00050F8042B41F8042B50F8042B41F8042B6A
:1028B00050F8042B41F8042B50F8042B41F8042B5A
:1028C00050F8042B41F8042B50F8042B41F8042B4A
:1028D00050F8042B41F8042B50F8042B41F8042B3A
:1028E00050F8042B41F8042B50F8042B41F8042B2A
:1028F00050F8042B41F8042B50F8042B41F8042B1A
:1029000050F8042B41F8042B0FCB00F075FC40F27B
:10291000641540F2C800C2F20005C2F20000294668
:1029200064224FF47A73FEF7DDFDB5F8070040BA74
:10293000022840F2DF801299821E1BA8FDF7E2FCFC
:102940009DF86C60152E00F2D580DFE816F01700B8
:102950005901D300D300D300D300E700FB00D3001C
:10296000D300D300D300D300D300D300D300D300CF
:10297000D300D300D300D3000F0100BF00F0CCFA86
:102980006420FDF7FBFD43F27F4043F26451C0F643
:102990000000C0F6000100F0D1FC16AEDFA1304609
:1029A0002246FDF72BFC00F0B7FA6420FDF7E6FDA8
:1029B00043F2D340C0F60000314600F0BFFCDDE931
:1029C0001310D9E9005699F8087099F809803F2248
:1029D000FDF798FC0322B9F84E00ADF8BA200522A5
:1029E00007F108018DF8BC20159ACDE92C568DF819
:1029F000B8708DF8B980ADF8FC10ADF8FE0052F853
:102A0000041B684640F8041B52F8041B2CAB40F82A
:102A1000041B52F8041B40F8041B52F8041B40F836
:102A2000041B52F8041B40F8041B52F8041B40F826
:102A3000041B52F8041B40F8041B52F8041B40F816
:102A4000041B52F8041B40F8041B52F8041B40F806
:102A5000041B52F8041B40F8041B52F8041B40F8F6
:102A6000041B52F8041B40F8041B52F8041B40F8E6
:102A7000041B52F8041B40F8041B52F8041B40F8D6
:102A8000041B0FCB00F0B8FB40F2641540F2C80005
:102A9000C2F20005C2F20000294664224FF47A73A4
:102AA000FEF720FDB5F8070040BA022822D9129996
:102AB000821E1BA8FDF726FC9DF86C60002E69D0D5
:102AC000012E00F09D800A2E14D100F025FA64201A
:102AD000FDF754FD43F2485043F2BC41C0F60000FC
:102AE000C0F6000100F02AFC0A26F0B241B0BDE8B1
:102AF000F08F00BF00F010FA6420FDF73FFD43F2B5
:102B00002A5043F26451C0F60000C0F6000100F004
:102B100015FCF0B241B0BDE8F08F00BF00F0FCF949
:102B20006420FDF72BFD43F2555043F26451C0F68B
:102B30000000C0F6000100F001FC0626F0B241B032
:102B4000BDE8F08F00F0E8F96420FDF717FD43F2CF
:102B50008F4043F23851C0F60000C0F6000100F08B
:102B6000EDFB0726F0B241B0BDE8F08F00F0D4F9DC
:102B70006420FDF703FD43F28F4043F23851C0F665
:102B80000000C0F6000100F0D9FB1526F0B241B0FC
:102B9000BDE8F08F00F0C0F96420FDF7EFFC43F2D0
:102BA000544043F26451C0F60000C0F6000100F04A
:102BB000C5FB0120214600F0BDF80646182899D82B
:102BC000DFE806F0101E0E0E0E0E0E0E0E0E0E326A
:102BD0000E0E0E0E0E0E0E0E0E0E0E0E460000BF48
:102BE00088E700BF00F098F96420FDF7C7FC43F2C6
:102BF000644043F26451C0F60000C0F600010CE0EE
:102C000000F08AF96420FDF7B9FC43F2F24043F288
:102C10001151C0F60000C0F6000100F08FFB012644
:102C2000F0B241B0BDE8F08F00F076F96420FDF716
:102C3000A5FC43F29E4043F20051C0F60000C0F6EE
:102C4000000100F07BFB0B26F0B241B0BDE8F08F35
:102C500000F062F96420FDF791FC43F2AE4043F2CC
:102C6000CA41C0F60000C0F6000100F067FB18265C
:102C7000F0B241B0BDE8F08F526561647920746FA5
:102C800020656E726F6C6C20000000006120666928
:102C90006E6765727072696E74210000506C6561B8
:102CA0007365207479706520696E200074686520F2
:102CB0004944202328312D3132372900456E726F67
:102CC0006C6C696E67204944202300005761697469
:102CD000696E672066696E6765720000746F2065B3
:102CE0006E726F6C6C2061732023000052656D6FF3
:102CF00076652066696E67657200000049442000B1
:102D0000506C6163652073616D65000066696E6774
:102D1000657220616761696E00000000666F722055
:102D200023256400FEE70000FEE700007047000076
:102D30007047000010B5B6B040F21002C2F20002B7
:102D4000D2E90434D2E900EC269393692794D4693C
:102D50002893136A2994546ACDE922ECCDE92A34E8
:102D6000D2E90E433193536B3094146B2F93D36A93
:102D70002E94946A2D93136C2C94546C3293936C10
:102D80003394147A34930BBA43EA0023204400EBC3
:102D90001120C9B20844517A0C308DF891100621E7
:102DA000ADF89210991D2591B2F84E10ADF8D400EF
:102DB00022A88DF89040ADF8D610103050F8042BB2
:102DC000694641F8042B50F8042B22AB41F8042B40
:102DD00050F8042B41F8042B50F8042B41F8042B35
:102DE00050F8042B41F8042B50F8042B41F8042B25
:102DF00050F8042B41F8042B50F8042B41F8042B15
:102E000050F8042B41F8042B50F8042B41F8042B04
:102E100050F8042B41F8042B50F8042B41F8042BF4
:102E200050F8042B41F8042B50F8042B41F8042BE4
:102E300050F8042B41F8042B50F8042B41F8042BD4
:102E40000FCB00F0D9F940F2641440F2C800C2F28E
:102E50000004C2F20000214664224FF47A73FEF7A8
:102E600041FBB4F8070041BA032907D38A1E04F1D5
:102E7000090111A8FDF746FA9DF84400C0B236B02A
:102E800010BD0000FDF7A8BE70470000FEE700007F
:102E900080B5032812D002281ED0012818BF80BD9B
:102EA00000F03AF86420FDF769FB43F2655118A081
:102EB000C0F60001BDE8804000F040BA00F02CF8F8
:102EC0006420FDF75BFB43F26550C0F6000008A1EB
:102ED000BDE8804000F032BA00F01EF86420FDF733
:102EE0004DFB06A007A1BDE8804000F027BA00BF57
:102EF0003E2044656C65746500000000486F6D6598
:102F0000000000003E20526567697374657200001E
:102F10003E20486F6D65000080B582B040F60C0021
:102F2000C1F61C00019040F210104FF0640CC2F288
:102F3000000001AA4E210423CDF800C0FDF72CFDAE
:102F400002B080BDB0B582B043F63C0040F2101430
:102F5000C3F63C00C2F200040190642501AA204699
:102F60004E2104230095FDF717FD43F63C00C2F601
:102F70002C00019001AA20464E2104230095FDF764
:102F80000BFD3220FDF7FAFA42F62C00C8F68C0051
:102F9000019001AA20464E2104230095FDF7FCFC78
:102FA0003220FDF7EBFA40F60C00C1F61C00019050
:102FB00001AA20464E2104230095FDF7EDFC3220A6
:102FC000FDF7DCFA40F60C00C6F66C00019001AA91
:102FD00020464E2104230095FDF7DEFC3220FDF74C
:102FE000CDFA40F60C00CCF6CC00019001AA2046A8
:102FF0004E2104230095FDF7CFFC3220FDF7BEFAE9
:1030000040F60C00C2F62C00019001AA20464E2189
:1030100004230095FDF7C0FC3220FDF7AFFA48F617
:103020008C00C0F60C00019001AA20464E2104231A
:103030000095FDF7B1FC02B0B0BD000090B0FDF707
:10304000D9FD00240120CDE90B44CDE909440690C7
:103050000A904FF4E0104FF4803102250F9006A83B
:10306000CDE90714CDE90D51FDF776FF20B1EFF35F
:10307000108072B6FEE700BF0F20CDE901054FF4C6
:103080008060CDE9040401A802210394FDF75AFEF3
:1030900020B1EFF3108072B6FEE700BF002641F2C8
:1030A00018000996C4F20200016840F6000441F0DD
:1030B000200101600168C4F2010401F020010191C6
:1030C0000199016806AD41F0040101600168012722
:1030D00001F0040101910199016841F008010160CA
:1030E0000068294600F0080001900198072006902A
:1030F0000020C1F21100079020460897FDF786FADC
:10310000182006A9C1C120462946FDF77FFA0620EE
:1031100000210022FDF7DAFD0620FDF7C5FD07209E
:1031200000210022FDF7D2FD0720FDF7BDFD08209C
:1031300000210022FDF7CAFD0820FDF7B5FD40F291
:103140001010A4F53441C2F2000048F2A0624FF41E
:103150008043C0F2010280E84600C0E90363C0E991
:103160000566C0E90766FDF765FB28B1EFF310803F
:1031700072B600BFFEE700BFA4F5404140F2C004B4
:10318000C2F20004204640F8081F4FF461414FF49A
:1031900000520C23C0E90116C0E90326C0E9053638
:1031A000C661FEF7EFF828B1EFF3108072B600BFEA
:1031B000FEE700BFFFF7C6FE40F20C05C2F20005B5
:1031C000002601E0FEF7CEFFFEF7B0FD20680128E3
:1031D00003D12868FFF75CFE266060680128F3D100
:1031E000666028680228EDD028680328ECD1022008
:1031F000FEF7B8FFE8E7000084B02DE9F04182B0A7
:103200000DF1200C40F2C80406468CE80F00000ABD
:10321000C2F200040DF107058DF80700204629468B
:1032200001224FF47A730DF12008FEF733FA20469D
:10323000294601224FF47A738DF80760FEF72AFAC7
:10324000FF262046294601224FF47A738DF8076045
:10325000FEF720FA2046294601224FF47A738DF8B2
:103260000760FEF717FA2046294601224FF47A73C9
:103270008DF80760FEF70EFA2046294601224FF42A
:103280007A738DF80760FEF705FA9DF82800294645
:103290008DF80700204601224FF47A73FEF7FAF901
:1032A00000208DF807002046294601224FF47A734A
:1032B000FEF7F0F9BDF82A602046294601224FF4B6
:1032C0007A738DF80760FEF7E5F9032E15D340F207
:1032D000C804023E08F10B07C2F200040DF1070515
:1032E00017F8010F29468DF80700204601224FF4F8
:1032F0007A73FEF7CFF9013EF2D1B8F84C6040F294
:10330000C804300AC2F200040DF107058DF8070069
:103310002046294601224FF47A73FEF7BBF9204676
:10332000294601224FF47A738DF80760FEF7B2F94F
:1033300002B0BDE8F04104B0704700002DE9F04153
:1033400082B0054648F68C00C0F60C00019040F2B1
:10335000101088466427C2F2000001AA4E210423FF
:103360000097FDF719FB287810B36C1E40F210157A
:10337000C2F2000501AE00BF20F00F01000101F113
:103380000D0209318DF8051000F10D0109308DF89D
:1033900004208DF806108DF8070028464E2132468D
:1033A00004230097FDF7F8FAA07801340028E3D150
:1033B0004CF6CC00C0F60C00019040F21010C2F2A6
:1033C000000001AA4E2104230097FDF7E5FA98F8C2
:1033D000000018B340F21014A8F101066427C2F2ED
:1033E000000401AD20F00F01000101F10D020931CF
:1033F0008DF8051000F10D0109308DF804208DF8CD
:1034000006108DF8070020464E212A460423009717
:10341000FDF7C2FAB07801360028E3D14FF4FA6024
:10342000FDF7ACF802B0BDE8F0810000000000003C
:103430000000010203040607080900000000010261
:103440000304010202030405060708090A0B0C0D18
:103450000E0F10105072696E7473206D6174636882
:103460006564210053746F72656421002E2E2E2E28
:103470002E2E2E2E2E2E2E2E2E2E2E002564004980
:103480006D61676520636F6E766572746564004375
:103490006F756C64206E6F742066696E6400436F94
:1034A000756C64206E6F742073746F726500457262
:1034B000726F722077726974696E67006469642044
:1034C0006E6F74206D6174636800746F20666C6148
:1034D0007368004372656174696E67206D6F64651F
:1034E0006C00496D6167652074616B656E0020201A
:1034F0002020436F6D6D756E69636174696F6E0036
:10350000696E2074686174206C6F636174696F6E9A
:103510000020202020206572726F7200496D616763
:10352000696E67206572726F7200556E6B6E6F7791
:103530006E206572726F720066696E6765722066D2
:10354000656174757265730046696E676572707245
:10355000696E747300496D61676520746F6F206DCB
:103560006573737900526567697374657200000052
:1035700090350008000000206000000050010008A5
:10358000F03500086000002070070000700100089E
:1035900001000000100000000024F4000100000001
:1035A00001EF0000FFFFFFFF01000000000000002E
:1035B000000000000000000000000000000000000B
:1035C00000000000000000000000000000000000FB
:1035D00000000000000000000000000000000000EB
:1035E00000000000000000000000000000000000DB
:04000005080000ED02
:00000001FF
